:100000000C9434000C9451000C9451000C94510049
:100010000C9451000C9451000C9451000C9451001C
:100020000C9451000C9451000C9451000C9451000C
:100030000C9451000C9451000C9451000C945100FC
:100040000C9451000C9451000C9451000C945100EC
:100050000C9451000C9451000C9451000C945100DC
:100060000C9451000C94510011241FBECFEFD8E026
:10007000DEBFCDBF12E0A0E0B1E0E4E5FEE002C0EB
:1000800005900D92A434B107D9F722E0A4E4B2E0C0
:1000900001C01D92A636B207E1F70E9406020C9439
:1000A00028070C94000060FF11C05C9A61FF10C02B
:1000B0005D9A62FF0FC05E9A63FF0EC05F9A5B9A03
:1000C00085E08A95F1F700005B9808955C98EECF83
:1000D0005D98EFCF5E98F0CF5F98F1CF1F93CF93ED
:1000E000DF93D82FC92F162F70E084E075956795A0
:1000F0008A95E1F78D2F0E945300612F8D2F9C2F41
:100100000E94530087EC90E00197F1F700C00000D7
:10011000DF91CF911F9108954295440F440F407C89
:100120006058640F0C946E0061E00E946E008FE3D3
:100130009FE10197F1F700C00000089562E00E947E
:100140006E008FE39FE10197F1F700C00000089572
:100150001F93CF93DF93D82FC92F162F70E084E021
:10016000759567958A95E1F78D2F0E9453008FE171
:100170009EE40197F1F700C00000612F8D2F9C2FA6
:100180000E9453008FE19EE40197F1F700C0000048
:10019000DF91CF911F9108955A9A0E94A8005A9812
:1001A0000895EF92FF920F931F93CF93DF938C01EB
:1001B000EB01F12CE12C8991882391F080E1E81684
:1001C000F10421F460ECC8010E946E00FE01319739
:1001D0006081C8010E94CC008FEFE81AF80AEBCFCB
:1001E000DF91CF911F910F91FF90EF900895EF92C3
:1001F000FF920F931F93CF93DF938C017A01677067
:1002000088E0689FB00111246064C8010E946E00FC
:10021000E70188E0E80EF11C6991C8010E94CC005A
:10022000CE15DF05C9F7DF91CF911F910F91FF9098
:10023000EF9008950F931F93CF93DF93CDB7DEB761
:10024000A0970FB6F894DEBF0FBECDBF8C01529AB7
:10025000539A549A559A569A579A5C982FEF80E77A
:1002600092E0215080409040E1F700C0000063E040
:10027000C8010E9453008FE19EE40197F1F700C08E
:10028000000063E0C8010E9453008FE891E00197ED
:10029000F1F700C0000063E0C8010E94530062E073
:1002A000C8010E94530068E2C8010E946E006CE021
:1002B000C8010E946E00C8010E94940066E0C80157
:1002C0000E946E0095E89A95F1F7000088E0E4E05E
:1002D000F1E0DE01599601900D928A95E1F7AE01A9
:1002E000475E5F4F60E0C8010E94F70088E0EAE3E4
:1002F000F2E0DE01519601900D928A95E1F7AE0190
:100300004F5E5F4F61E0C8010E94F70088E0ECE0BB
:10031000F1E0DE01199601900D928A95E1F7AE01A8
:10032000475F5F4F62E0C8010E94F70088E0E4E1A8
:10033000F1E0DE01119601900D928A95E1F7AE0190
:100340004F5F5F4F63E0C8010E94F700A0960FB6B1
:10035000F894DEBF0FBECDBFDF91CF911F910F91FB
:100360000895FC0111821082138212820C941A01EA
:10037000CF93C82F8A3029F470E060E08DE00E94AE
:10038000B8018091C00085FFFCCFC093C60090E00B
:1003900080E0CF9108958091C00087FFFCCF8091CD
:1003A000C60090E008951092C50083E38093C400D6
:1003B000E0ECF0E080818D7F808386E08093C20056
:1003C00088E18093C10008950F931F93CF93DF932B
:1003D00002E512E082E0F801838388EB91E09187E7
:1003E0008087C4E4D2E081E08B838BEC91E09B8733
:1003F0008A870E94D301E0E6F2E013830283D1836F
:10040000C083DF91CF911F910F910895CDB7DEB7D3
:10041000C057D2400FB6F894DEBF0FBECDBF0E94CA
:10042000E401CE0183599D4F0E94B101CE01835951
:100430009D4F0E941A0188E893E1ED969FAF8EAF21
:10044000ED9783E090E0EB969FAF8EAFEB976CE17A
:1004500071E0CE0101960E94F7036EE271E0CE01D9
:1004600089960E94F7036BE471E0CE018F5A9F4F8B
:100470000E94F70388EB9BE0C950DF4F9983888384
:10048000C75FD04002E010E0CB50DF4F19830883F4
:10049000C55FD04062E671E0CE0183589F4F0E9455
:1004A000F7036AE771E0CE018B559F4F0E94F70377
:1004B0008CED95E0CD58DE4F99838883C357D140AA
:1004C000CF58DE4F19830883C157D1406EE971E0E0
:1004D000CE0187509F4F0E94F70366EB71E0CE017B
:1004E0008F5D9E4F0E94F70380EA9FE0C151DE4F6F
:1004F00099838883CF5ED140C351DE4F198308832F
:10050000CD5ED1406FEC71E0CE018B589E4F0E94C2
:10051000F70367EE71E0CE0183569E4F0E94F7030A
:1005200088EE93E0C559DD4F99838883CB56D2403E
:1005300081E090E0C759DD4F99838883C956D24046
:100540006CEF71E0CE018F509E4F0E94F703C950AF
:10055000DF4FE880F980C75FD040ED968EAD9FAD4C
:10056000ED97E80EF91ECD58DE4F88819981C3576B
:10057000D140E80EF91EC151DE4F88819981CF5ECE
:10058000D140E80EF91EC559DD4F88819981CB56BF
:10059000D240E80EF91ECC24CA94DC2C47012FEF80
:1005A000821A920A9CE7492E28E1622E22E0722EDE
:1005B00038E2532E86010E94E703B4010E945703DC
:1005C000883833E19307F8F09C0128583341293BE0
:1005D0004BE0340708F462C0295B3B402D3D45E009
:1005E000340708F45EC02D5D3540213A3F4008F4E1
:1005F0005BC08F3B24E3920744F0E816F9062CF029
:1006000004E010E002C010E000E00C151D0599F2B6
:100610000E94E703409E6001419ED00C1124E1E05E
:10062000F0E0EC0FFD1FEC0DFD1DE858FF4F608161
:1006300071810E9457035C01BF928F931F930F93A8
:100640007F926F920E94FE03CE0183599D4F0E94BC
:1006500094005A9CB0015B9C700D11246C0D7D1DA3
:1006600081E090E08C0F9D1F680F791F84599D4F8A
:100670000E94D10094E52DEC3DE243E091502040F2
:1006800030404040D9F700C000C000000F900F90EC
:100690000F900F900F900F9068018CCF01E010E049
:1006A000B4CF02E010E0B1CF03E010E0AECF97FB93
:1006B000072E16F4009407D077FD09D00E946B0333
:1006C00007FC05D03EF4909581959F4F0895709555
:1006D00061957F4F0895AA1BBB1B51E107C0AA1F5C
:1006E000BB1FA617B70710F0A61BB70B881F991FD3
:1006F0005A95A9F780959095BC01CD010895CF92A8
:10070000DF92EF92FF92CF93DF93CDB7DEB72A97B8
:100710000FB6F894DEBF0FBECDBF89879A87A98533
:10072000BA852D913D914D915C9129833A834B83FC
:100730005C83232B242B252B41F424E239ED4BE55C
:1007400057E029833A834B835C8369817A818B816B
:100750009C812DE133EF41E050E00E948E0669015B
:100760007A01A7EAB1E49B01AC010E94AD0669835E
:100770007A838B839C83ACEEB4EFA70196010E9431
:10078000BB069B01AC0189819A81AB81BC81820F40
:10079000931FA41FB51FB7FF03C00197A109B0485D
:1007A000E985FA8580839183A283B3839F772A9614
:1007B0000FB6F894DEBF0FBECDBFDF91CF91FF9093
:1007C000EF90DF90CF9008950E947F03089580E01E
:1007D00091E00E947F030895B0E0A0E080930001C3
:1007E00090930101A0930201B09303010895FB01CE
:1007F000DC0101900D920020E1F70895B0E0A0E047
:10080000E4E0F4E00C94D006FE013596619171911C
:10081000AF0180916202909163020E941204E2E0B3
:100820000C94EC06AFE0B0E0E8E1F4E00C94C00614
:100830007C013B018A01DC0117961C921E921697DF
:1008400013968C9181FFC3C19AE0292EFE01319647
:100850004F01D70113969C91F30193FD859193FF6E
:1008600081913F01882309F448C1853239F493FD11
:10087000859193FF81913F01853229F4B70190E082
:100880000E940006E6CFB12C412C512CBFE1B515DA
:1008900038F08B3209F188F4803201F1833221F192
:1008A00057FC3AC020ED280F2A3040F556FE1FC0F5
:1008B000B29C200D1124B22E06C08D3291F08033EF
:1008C00079F7689450F8F30193FD859193FF819136
:1008D0003F018111DBCF20C0689451F8689452F831
:1008E000F2CF689453F8EFCF689454F8ECCF429C61
:1008F000200D1124422E689455F8E5CF8E3229F44C
:1009000056FCFBC0689456F8DECF8C3619F4689418
:1009100057F8D9CF8836B9F2982F9F7D95549330E8
:10092000C0F08336A1F18337C1F1833509F05BC094
:10093000D801CD90DD908D016B2D70E056FC02C08A
:100940006FEF7FEFC6010E94EA055C01689457F8DB
:100950000AC00C5F1F4FEFE3E983AA24A394B12CD4
:100960006401E89457F853FC04C04A141B0409F0CE
:1009700018F5342CA114B10431F5332009F469CFF2
:10098000B70180E290E00E9400063A94F6CFD801C9
:100990008C9189830E5F1F4FE0CFF801C190D190F9
:1009A0008F016B2D70E056FC02C06FEF7FEFC60128
:1009B0000E94F5055C01D5CFB70180E290E00E946E
:1009C00000064A94D2CFF60157FC859157FE8191DB
:1009D0006F01B70190E00E94000631103A94B1E037
:1009E000AB1AB108C7CF843619F0893609F074C044
:1009F000F80157FE6AC061917191819191918F01C7
:100A0000E52DEF76DE2E97FF09C0909580957095C5
:100A100061957F4F8F4F9F4F6894D7F82AE030E061
:100A2000A4010E943006C82EC818AC2C5D2CD6FE3E
:100A30000CC0E89450F8CB1440F4D4FE05C0D2FCAE
:100A400003C05D2D5E7E552EAB2C54FE98C0FE017A
:100A5000EC0DF11D8081803309F08AC0652D697E1F
:100A6000562E752D7870372E53FC98C050FE92C0CC
:100A7000BC2CA41418F44C0CB42CBA1854FE94C01A
:100A8000B70180E390E00E94000652FE09C088E7AB
:100A900090E051FE02C088E590E0B7010E94000698
:100AA000CB1408F48DC0CA94D12C8FEFC81AD80A81
:100AB000C80CD91CD6018E916D01B70190E00E943F
:100AC00000068C149D04B1F758CF61917191072EE7
:100AD000000C880B990B93CFD52CE894D4F82AE01E
:100AE00030E0853739F1F52DF97FDF2E8037A9F019
:100AF00058F48835A9F08F36D9F0F70186819781AF
:100B00002F96E2E10C94DC068837B9F7D4FE02C0D8
:100B10006894D2F820E130E00DC06894D4F8F6CFA4
:100B200054FE03C02F2F2660D22E20E132E002C0F7
:100B300028E030E0F801D7FE15C041915191619154
:100B400071914C875D876E877F878F01A4016C85CB
:100B50007D858E859F850E943006C82EC818E89432
:100B6000D7F863CF81919191AC0170E060E0E9CF5B
:100B700052FC02C0A39475CFA394A39472CF852D89
:100B8000867809F46ECFF6CFB70180E290E00E943C
:100B90000006A394A414C0F3312C70CF342C3A185F
:100BA000A41408F46BCFF8CF852D867809F478CF9C
:100BB0008BE251FE80E257FC8DE2B70190E06ECFF0
:100BC000B70180E390E00E940006BA9469CF8FEFEE
:100BD0009FEF96CFFC010590615070400110D8F74F
:100BE000809590958E0F9F1F0895FC016150704075
:100BF00001900110D8F7809590958E0F9F1F089552
:100C00000F931F93CF93DF93182F092FEB018B8145
:100C100081FD09C01FEF0FEF812F902FDF91CF9142
:100C20001F910F91089582FF14C02E813F818C8106
:100C30009D81281739073CF4E881F981CF0101969D
:100C40009983888310838E819F8101969F838E83F1
:100C5000E3CFE885F985812F0995892BA1F3DACFB8
:100C6000FA01AA27283051F1203181F1E8946F93DD
:100C70006E7F6E5F7F4F8F4F9F4FAF4FB1E03ED083
:100C8000B4E03CD0670F781F891F9A1FA11D680F21
:100C9000791F8A1F911DA11D6A0F711D811D911D54
:100CA000A11D20D009F468943F912AE0269F1124C9
:100CB0003019305D3193DEF6CF010895462F47702D
:100CC000405D4193B3E00FD0C9F7F6CF462F4F7088
:100CD000405D4A3318F0495D31FD4052419302D0E6
:100CE000A9F7EACFB4E0A69597958795779567958C
:100CF000BA95C9F700976105710508959B01AC018C
:100D00000A2E06945795479537952795BA95C9F7B2
:100D1000620F731F841F951FA01D0895052E97FB5A
:100D20001EF400940E94A50657FD07D00E94F70606
:100D300007FC03D04EF40C94A506509540953095D1
:100D400021953F4F4F4F5F4F089590958095709537
:100D500061957F4F8F4F9F4F08950E941907A59F60
:100D6000900DB49F900DA49F800D911D11240895A6
:100D7000B7FF0C94AD060E94AD06821B930B08953D
:100D80002F923F924F925F926F927F928F929F929B
:100D9000AF92BF92CF92DF92EF92FF920F931F9389
:100DA000CF93DF93CDB7DEB7CA1BDB0B0FB6F8943A
:100DB000DEBF0FBECDBF09942A88398848885F847A
:100DC0006E847D848C849B84AA84B984C884DF80EB
:100DD000EE80FD800C811B81AA81B981CE0FD11DCF
:100DE0000FB6F894DEBF0FBECDBFED010895A1E2AE
:100DF0001A2EAA1BBB1BFD010DC0AA1FBB1FEE1F95
:100E0000FF1FA217B307E407F50720F0A21BB30BDF
:100E1000E40BF50B661F771F881F991F1A9469F75B
:100E200060957095809590959B01AC01BD01CF01B7
:100E30000895A29FB001B39FC001A39F700D811DB3
:100E40001124911DB29F700D811D1124911D0895D3
:040E5000F894FFCF44
:100E54000100000004000E010F110F00000C0A092C
:100E64000A0C000000060A120A0600004BEF70206C
:100E740062696C20686F7320486172727900456EF4
:100E840020676F642062696C616666E1722028667F
:100E9400EF72204861727279212900486564657295
:100EA4006C696765204861727279732042696C616C
:100EB40072004BEF702070616A20686F7320466186
:100EC400726D6F7220416E6B6100536B796E646159
:100ED40020696E6E616E204D617274656E20E174DE
:100EE400697420616C6C612070616A6572004C6188
:100EF400742050657474657220627967676120613B
:100F0400742064696700427967676120737661724F
:100F1400743F2052696E6720506574746572004D89
:100F240079737465726965723F2052696E67204CEB
:100F3400616E6762656E004C616E6762656E206605
:100F4400697861722062696666656E0053796E61C4
:100F5400732068E1723F20494F543A732052656B05
:100F64006C616D62797261004E6F77207072657387
:100F7400656E74696E673B202564207C2054657817
:100F8400742069643A2025640A001F110A04040AC3
:040F9400111F000029
:00000001FF
